{
  "contractName": "Voting",
  "abi": [
    {
      "inputs": [],
      "payable": false,
      "stateMutability": "nonpayable",
      "type": "constructor"
    },
    {
      "anonymous": false,
      "inputs": [
        {
          "indexed": true,
          "internalType": "uint256",
          "name": "_candidateId",
          "type": "uint256"
        }
      ],
      "name": "voted",
      "type": "event"
    },
    {
      "constant": true,
      "inputs": [
        {
          "internalType": "uint256",
          "name": "",
          "type": "uint256"
        }
      ],
      "name": "candidates",
      "outputs": [
        {
          "internalType": "uint256",
          "name": "id",
          "type": "uint256"
        },
        {
          "internalType": "string",
          "name": "name",
          "type": "string"
        },
        {
          "internalType": "string",
          "name": "gnumber",
          "type": "string"
        },
        {
          "internalType": "uint256",
          "name": "voteCount",
          "type": "uint256"
        }
      ],
      "payable": false,
      "stateMutability": "view",
      "type": "function"
    },
    {
      "constant": true,
      "inputs": [],
      "name": "totalCandidates",
      "outputs": [
        {
          "internalType": "uint256",
          "name": "",
          "type": "uint256"
        }
      ],
      "payable": false,
      "stateMutability": "view",
      "type": "function"
    },
    {
      "constant": true,
      "inputs": [
        {
          "internalType": "address",
          "name": "",
          "type": "address"
        }
      ],
      "name": "voters",
      "outputs": [
        {
          "internalType": "bool",
          "name": "",
          "type": "bool"
        }
      ],
      "payable": false,
      "stateMutability": "view",
      "type": "function"
    },
    {
      "constant": false,
      "inputs": [
        {
          "internalType": "uint256",
          "name": "_candidateId",
          "type": "uint256"
        }
      ],
      "name": "vote",
      "outputs": [],
      "payable": false,
      "stateMutability": "nonpayable",
      "type": "function"
    }
  ],
  "bytecode": "0x608060405234801561001057600080fd5b5061008b6040518060400160405280600681526020017f53726176796100000000000000000000000000000000000000000000000000008152506040518060400160405280600981526020017f473031333238343036000000000000000000000000000000000000000000000081525061018460201b60201c565b6101056040518060400160405280600881526020017f56696e7574686e610000000000000000000000000000000000000000000000008152506040518060400160405280600981526020017f473031333333333438000000000000000000000000000000000000000000000081525061018460201b60201c565b61017f6040518060400160405280600881526020017f50726979616e6b610000000000000000000000000000000000000000000000008152506040518060400160405280600981526020017f473031333339393231000000000000000000000000000000000000000000000081525061018460201b60201c565b6102c9565b6002600081548092919060010191905055506040518060800160405280600254815260200183815260200182815260200160008152506001600060025481526020019081526020016000206000820151816000015560208201518160010190805190602001906101f5929190610224565b506040820151816002019080519060200190610212929190610224565b50606082015181600301559050505050565b828054600181600116156101000203166002900490600052602060002090601f016020900481019282601f1061026557805160ff1916838001178555610293565b82800160010185558215610293579182015b82811115610292578251825591602001919060010190610277565b5b5090506102a091906102a4565b5090565b6102c691905b808211156102c25760008160009055506001016102aa565b5090565b90565b6104f3806102d86000396000f3fe608060405234801561001057600080fd5b506004361061004c5760003560e01c80630121b93f146100515780633477ee2e1461007f5780633866965c146101a0578063a3ec138d146101be575b600080fd5b61007d6004803603602081101561006757600080fd5b810190808035906020019092919050505061021a565b005b6100ab6004803603602081101561009557600080fd5b8101908080359060200190929190505050610338565b604051808581526020018060200180602001848152602001838103835286818151815260200191508051906020019080838360005b838110156100fb5780820151818401526020810190506100e0565b50505050905090810190601f1680156101285780820380516001836020036101000a031916815260200191505b50838103825285818151815260200191508051906020019080838360005b83811015610161578082015181840152602081019050610146565b50505050905090810190601f16801561018e5780820380516001836020036101000a031916815260200191505b50965050505050505060405180910390f35b6101a8610498565b6040518082815260200191505060405180910390f35b610200600480360360208110156101d457600080fd5b81019080803573ffffffffffffffffffffffffffffffffffffffff16906020019092919050505061049e565b604051808215151515815260200191505060405180910390f35b6000803373ffffffffffffffffffffffffffffffffffffffff1673ffffffffffffffffffffffffffffffffffffffff16815260200190815260200160002060009054906101000a900460ff161561027057600080fd5b60008111801561028257506002548111155b61028b57600080fd5b60016000803373ffffffffffffffffffffffffffffffffffffffff1673ffffffffffffffffffffffffffffffffffffffff16815260200190815260200160002060006101000a81548160ff0219169083151502179055506001600082815260200190815260200160002060030160008154809291906001019190505550807f8fbb38ff86a5b319c33b22609be0afce04335d5db18c6bd100767e251d4028cc60405160405180910390a250565b6001602052806000526040600020600091509050806000015490806001018054600181600116156101000203166002900480601f0160208091040260200160405190810160405280929190818152602001828054600181600116156101000203166002900480156103ea5780601f106103bf576101008083540402835291602001916103ea565b820191906000526020600020905b8154815290600101906020018083116103cd57829003601f168201915b505050505090806002018054600181600116156101000203166002900480601f0160208091040260200160405190810160405280929190818152602001828054600181600116156101000203166002900480156104885780601f1061045d57610100808354040283529160200191610488565b820191906000526020600020905b81548152906001019060200180831161046b57829003601f168201915b5050505050908060030154905084565b60025481565b60006020528060005260406000206000915054906101000a900460ff168156fea265627a7a72315820e172beee966cdc73c60eff14e2797076537851de51fb53e1ebcbbe7b1e4b2b1064736f6c63430005100032",
  "source": "pragma solidity ^0.5.16;\r\n\r\ncontract Voting {\r\n    struct Candidate {\r\n        uint id;\r\n        string name;\r\n        string gnumber;\r\n        uint voteCount;\r\n    }\r\n\r\n    //store accounts that have casted their vote\r\n    mapping(address => bool) public voters;\r\n    //store candidates\r\n    mapping(uint => Candidate) public candidates;\r\n    uint public totalCandidates;\r\n\r\n    //event for voted\r\n    event voted (\r\n        uint indexed _candidateId\r\n    );\r\n\r\n    function addCandidate(string memory _name, string memory _gnumber) private {\r\n        totalCandidates++;\r\n        candidates[totalCandidates] = Candidate(totalCandidates, _name, _gnumber, 0);\r\n    }\r\n\r\n    function vote(uint _candidateId) public {\r\n        //check that the voter is voting only once\r\n        require(!voters[msg.sender]);\r\n        //valid candidate is getting the vote\r\n        require(_candidateId > 0 && _candidateId <= totalCandidates);\r\n        //store when a voter votes \r\n        voters[msg.sender] = true;\r\n        // updating the vote count of candidate \r\n        candidates[_candidateId].voteCount ++;\r\n        //triggering the voted event\r\n        emit voted(_candidateId);\r\n    }\r\n\r\n    constructor() public {\r\n        addCandidate(\"Sravya\", \"G01328406\");\r\n        addCandidate(\"Vinuthna\", \"G01333348\");\r\n        addCandidate(\"Priyanka\", \"G01339921\");\r\n    }\r\n}\r\n\r\n\r\n\r\n\r\n\r\n",
  "sourcePath": "C:\\Users\\vinut\\project695\\contracts\\Voting.sol",
  "compiler": {
    "name": "solc",
    "version": "0.5.16+commit.9c3226ce.Emscripten.clang"
  },
  "schemaVersion": "3.4.13",
  "updatedAt": "2023-05-05T12:18:38.411Z",
  "networkType": "ethereum",
  "devdoc": {
    "methods": {}
  },
  "userdoc": {
    "methods": {}
  }
}